{"contracts/EthereumDIDRegistry.sol":{"EthereumDIDRegistry":{"abi":[{"anonymous":false,"inputs":[{"indexed":true,"internalType":"address","name":"identity","type":"address"},{"indexed":false,"internalType":"bytes32","name":"name","type":"bytes32"},{"indexed":false,"internalType":"bytes","name":"value","type":"bytes"},{"indexed":false,"internalType":"uint256","name":"validTo","type":"uint256"},{"indexed":false,"internalType":"uint256","name":"previousChange","type":"uint256"}],"name":"DIDAttributeChanged","type":"event"},{"anonymous":false,"inputs":[{"indexed":true,"internalType":"address","name":"identity","type":"address"},{"indexed":false,"internalType":"bytes32","name":"delegateType","type":"bytes32"},{"indexed":false,"internalType":"address","name":"delegate","type":"address"},{"indexed":false,"internalType":"uint256","name":"validTo","type":"uint256"},{"indexed":false,"internalType":"uint256","name":"previousChange","type":"uint256"}],"name":"DIDDelegateChanged","type":"event"},{"anonymous":false,"inputs":[{"indexed":true,"internalType":"address","name":"identity","type":"address"},{"indexed":false,"internalType":"string","name":"cid","type":"string"}],"name":"DIDDocumentCIDUpdated","type":"event"},{"anonymous":false,"inputs":[{"indexed":true,"internalType":"address","name":"identity","type":"address"},{"indexed":false,"internalType":"address","name":"owner","type":"address"},{"indexed":false,"internalType":"uint256","name":"previousChange","type":"uint256"}],"name":"DIDOwnerChanged","type":"event"},{"anonymous":false,"inputs":[{"indexed":true,"internalType":"address","name":"identity","type":"address"},{"indexed":false,"internalType":"string","name":"cid","type":"string"}],"name":"ProfileCIDUpdated","type":"event"},{"inputs":[{"internalType":"address","name":"identity","type":"address"},{"internalType":"bytes32","name":"delegateType","type":"bytes32"},{"internalType":"address","name":"delegate","type":"address"},{"internalType":"uint256","name":"validity","type":"uint256"}],"name":"addDelegate","outputs":[],"stateMutability":"nonpayable","type":"function"},{"inputs":[{"internalType":"address","name":"identity","type":"address"},{"internalType":"uint8","name":"sigV","type":"uint8"},{"internalType":"bytes32","name":"sigR","type":"bytes32"},{"internalType":"bytes32","name":"sigS","type":"bytes32"},{"internalType":"bytes32","name":"delegateType","type":"bytes32"},{"internalType":"address","name":"delegate","type":"address"},{"internalType":"uint256","name":"validity","type":"uint256"}],"name":"addDelegateSigned","outputs":[],"stateMutability":"nonpayable","type":"function"},{"inputs":[{"internalType":"address","name":"identity","type":"address"},{"internalType":"address","name":"newOwner","type":"address"}],"name":"changeOwner","outputs":[],"stateMutability":"nonpayable","type":"function"},{"inputs":[{"internalType":"address","name":"identity","type":"address"},{"internalType":"uint8","name":"sigV","type":"uint8"},{"internalType":"bytes32","name":"sigR","type":"bytes32"},{"internalType":"bytes32","name":"sigS","type":"bytes32"},{"internalType":"address","name":"newOwner","type":"address"}],"name":"changeOwnerSigned","outputs":[],"stateMutability":"nonpayable","type":"function"},{"inputs":[{"internalType":"address","name":"","type":"address"}],"name":"changed","outputs":[{"internalType":"uint256","name":"","type":"uint256"}],"stateMutability":"view","type":"function"},{"inputs":[{"internalType":"address","name":"","type":"address"},{"internalType":"bytes32","name":"","type":"bytes32"},{"internalType":"address","name":"","type":"address"}],"name":"delegates","outputs":[{"internalType":"uint256","name":"","type":"uint256"}],"stateMutability":"view","type":"function"},{"inputs":[{"internalType":"address","name":"identity","type":"address"}],"name":"getDIDDocumentCID","outputs":[{"internalType":"string","name":"","type":"string"}],"stateMutability":"view","type":"function"},{"inputs":[{"internalType":"address","name":"identity","type":"address"}],"name":"getProfileCID","outputs":[{"internalType":"string","name":"","type":"string"}],"stateMutability":"view","type":"function"},{"inputs":[{"internalType":"address","name":"identity","type":"address"}],"name":"identityOwner","outputs":[{"internalType":"address","name":"","type":"address"}],"stateMutability":"view","type":"function"},{"inputs":[{"internalType":"address","name":"","type":"address"}],"name":"nonce","outputs":[{"internalType":"uint256","name":"","type":"uint256"}],"stateMutability":"view","type":"function"},{"inputs":[{"internalType":"address","name":"","type":"address"}],"name":"owners","outputs":[{"internalType":"address","name":"","type":"address"}],"stateMutability":"view","type":"function"},{"inputs":[{"internalType":"address","name":"identity","type":"address"},{"internalType":"bytes32","name":"name","type":"bytes32"},{"internalType":"bytes","name":"value","type":"bytes"}],"name":"revokeAttribute","outputs":[],"stateMutability":"nonpayable","type":"function"},{"inputs":[{"internalType":"address","name":"identity","type":"address"},{"internalType":"uint8","name":"sigV","type":"uint8"},{"internalType":"bytes32","name":"sigR","type":"bytes32"},{"internalType":"bytes32","name":"sigS","type":"bytes32"},{"internalType":"bytes32","name":"name","type":"bytes32"},{"internalType":"bytes","name":"value","type":"bytes"}],"name":"revokeAttributeSigned","outputs":[],"stateMutability":"nonpayable","type":"function"},{"inputs":[{"internalType":"address","name":"identity","type":"address"},{"internalType":"bytes32","name":"delegateType","type":"bytes32"},{"internalType":"address","name":"delegate","type":"address"}],"name":"revokeDelegate","outputs":[],"stateMutability":"nonpayable","type":"function"},{"inputs":[{"internalType":"address","name":"identity","type":"address"},{"internalType":"uint8","name":"sigV","type":"uint8"},{"internalType":"bytes32","name":"sigR","type":"bytes32"},{"internalType":"bytes32","name":"sigS","type":"bytes32"},{"internalType":"bytes32","name":"delegateType","type":"bytes32"},{"internalType":"address","name":"delegate","type":"address"}],"name":"revokeDelegateSigned","outputs":[],"stateMutability":"nonpayable","type":"function"},{"inputs":[{"internalType":"address","name":"identity","type":"address"},{"internalType":"bytes32","name":"name","type":"bytes32"},{"internalType":"bytes","name":"value","type":"bytes"},{"internalType":"uint256","name":"validity","type":"uint256"}],"name":"setAttribute","outputs":[],"stateMutability":"nonpayable","type":"function"},{"inputs":[{"internalType":"address","name":"identity","type":"address"},{"internalType":"uint8","name":"sigV","type":"uint8"},{"internalType":"bytes32","name":"sigR","type":"bytes32"},{"internalType":"bytes32","name":"sigS","type":"bytes32"},{"internalType":"bytes32","name":"name","type":"bytes32"},{"internalType":"bytes","name":"value","type":"bytes"},{"internalType":"uint256","name":"validity","type":"uint256"}],"name":"setAttributeSigned","outputs":[],"stateMutability":"nonpayable","type":"function"},{"inputs":[{"internalType":"address","name":"identity","type":"address"},{"internalType":"string","name":"cid","type":"string"}],"name":"setDIDDocumentCID","outputs":[],"stateMutability":"nonpayable","type":"function"},{"inputs":[{"internalType":"address","name":"identity","type":"address"},{"internalType":"string","name":"cid","type":"string"}],"name":"setProfileCID","outputs":[],"stateMutability":"nonpayable","type":"function"},{"inputs":[{"internalType":"address","name":"identity","type":"address"},{"internalType":"bytes32","name":"delegateType","type":"bytes32"},{"internalType":"address","name":"delegate","type":"address"}],"name":"validDelegate","outputs":[{"internalType":"bool","name":"","type":"bool"}],"stateMutability":"view","type":"function"}],"evm":{"bytecode":{"linkReferences":{},"object":"608060405234801561001057600080fd5b50611834806100206000396000f3fe608060405234801561001057600080fd5b506004361061016b5760003560e01c806380b29f7c116100cd578063de8b05be11610081578063e476af5c11610066578063e476af5c1461038d578063f00d4b5d146103a0578063f96d0f9f146103b357600080fd5b8063de8b05be14610367578063e3095e451461037a57600080fd5b806393072684116100b2578063930726841461032e5780639c2c1b2b14610341578063a7068d661461035457600080fd5b806380b29f7c146103085780638733d4e81461031b57600080fd5b806335118de211610124578063622b2a3c11610109578063622b2a3c1461026357806370ae92d2146102d55780637ad4b0a4146102f557600080fd5b806335118de21461023057806346a59e5f1461025057600080fd5b80630d44625b116101555780630d44625b146101cb578063123b5e981461020a578063240cf1fa1461021d57600080fd5b8062c023da14610170578063022914a714610185575b600080fd5b61018361017e366004611263565b6103d3565b005b6101ae610193366004611195565b6000602081905290815260409020546001600160a01b031681565b6040516001600160a01b0390911681526020015b60405180910390f35b6101fc6101d93660046111e3565b600160209081526000938452604080852082529284528284209052825290205481565b6040519081526020016101c2565b610183610218366004611515565b6103e4565b61018361022b36600461137b565b610470565b61024361023e366004611195565b610552565b6040516101c29190611725565b61018361025e366004611319565b6105fe565b6102c56102713660046111e3565b6001600160a01b039283166000908152600160209081526040808320815180840196909652815180870384018152958201825285519583019590952083529381528382209290941681529252902054421090565b60405190151581526020016101c2565b6101fc6102e3366004611195565b60036020526000908152604090205481565b6101836103033660046112ba565b6106cb565b6101836103163660046111e3565b6106de565b6101ae610329366004611195565b6106ea565b61018361033c3660046113d2565b61071a565b61018361034f366004611431565b610805565b61018361036236600461121f565b6108f3565b610243610375366004611195565b610900565b610183610388366004611319565b610927565b61018361039b36600461149b565b6109e1565b6101836103ae3660046111b0565b610a60565b6101fc6103c1366004611195565b60026020526000908152604090205481565b6103df83338484610a6f565b505050565b6000601960f81b81306003826103f98d6106ea565b6001600160a01b03166001600160a01b03168152602001908152602001600020548b88888860405160200161043598979695949392919061165c565b6040516020818303038152906040528051906020012090506104668861045e8a8a8a8a87610b3e565b868686610c3d565b5050505050505050565b6000601960f81b81306003826104858b6106ea565b6001600160a01b0316815260208082019290925260409081016000205481516001600160f81b0319968716818501529490951660218501526bffffffffffffffffffffffff19606093841b8116602286015260368501959095528a831b851660568501527f6368616e67654f776e6572000000000000000000000000000000000000000000606a8501529186901b909316607583015280516069818403018152608990920190528051910120905061054a866105448188888887610b3e565b84610d21565b505050505050565b6001600160a01b03811660009081526005602052604090208054606091906105799061177c565b80601f01602080910402602001604051908101604052809291908181526020018280546105a59061177c565b80156105f25780601f106105c7576101008083540402835291602001916105f2565b820191906000526020600020905b8154815290600101906020018083116105d557829003601f168201915b50505050509050919050565b8133610609826106ea565b6001600160a01b0316816001600160a01b03161461065a5760405162461bcd60e51b81526020600482015260096024820152683130b22fb0b1ba37b960b91b60448201526064015b60405180910390fd5b6001600160a01b0384166000908152600460209081526040909120845161068392860190611032565b50836001600160a01b03167fdfb356fd3336224c49cebfc4c41e3dde8125aad9a1afab6a91b898e449f41c70846040516106bd9190611725565b60405180910390a250505050565b6106d88433858585610c3d565b50505050565b6103df83338484610e1d565b6001600160a01b0380821660009081526020819052604081205490911680156107135792915050565b5090919050565b6000601960f81b813060038261072f8c6106ea565b6001600160a01b0316815260208082019290925260409081016000205481516001600160f81b0319968716818501529490951660218501526bffffffffffffffffffffffff19606093841b8116602286015260368501959095528b831b851660568501527f7265766f6b6544656c6567617465000000000000000000000000000000000000606a850152607884018890529186901b90931660988301528051608c81840301815260ac9092019052805191012090506107fc876107f58189898987610b3e565b8585610e1d565b50505050505050565b6000601960f81b813060038261081a8d6106ea565b6001600160a01b0316815260208082019290925260409081016000205490516001600160f81b031995861692810192909252929093166021840152606090811b6bffffffffffffffffffffffff19908116602285015260368401929092528a811b821660568401527f61646444656c6567617465000000000000000000000000000000000000000000606a8401526075830187905285901b16609582015260a9810183905260c901604051602081830303815290604052805190602001209050610466886108eb8a8a8a8a87610b3e565b868686610f17565b6106d88433858585610f17565b6001600160a01b03811660009081526004602052604090208054606091906105799061177c565b8133610932826106ea565b6001600160a01b0316816001600160a01b03161461097e5760405162461bcd60e51b81526020600482015260096024820152683130b22fb0b1ba37b960b91b6044820152606401610651565b6001600160a01b038416600090815260056020908152604090912084516109a792860190611032565b50836001600160a01b03167f29ee3d96f0a07374c7d8a187b1d3b3c50acd35a617c7d387cafac1e0836ddd57846040516106bd9190611725565b6000601960f81b81306003826109f68c6106ea565b6001600160a01b03166001600160a01b03168152602001908152602001600020548a8787604051602001610a3097969594939291906115c6565b6040516020818303038152906040528051906020012090506107fc87610a598989898987610b3e565b8585610a6f565b610a6b823383610d21565b5050565b8383610a7a826106ea565b6001600160a01b0316816001600160a01b031614610ac65760405162461bcd60e51b81526020600482015260096024820152683130b22fb0b1ba37b960b91b6044820152606401610651565b6001600160a01b0386166000818152600260205260408082205490517f18ab6b2ae3d64306c00ce663125f2bd680e441a098de1635bd7ad8b0d44965e492610b13928992899291906116f9565b60405180910390a25050506001600160a01b0390921660009081526002602052604090204390555050565b6040805160008082526020820180845284905260ff8716928201929092526060810185905260808101849052819060019060a0016020604051602081039080840390855afa158015610b94573d6000803e3d6000fd5b505050602060405103519050610ba9876106ea565b6001600160a01b0316816001600160a01b031614610c095760405162461bcd60e51b815260206004820152600d60248201527f6261645f7369676e6174757265000000000000000000000000000000000000006044820152606401610651565b6001600160a01b0381166000908152600360205260408120805491610c2d836117b7565b9091555090979650505050505050565b8484610c48826106ea565b6001600160a01b0316816001600160a01b031614610c945760405162461bcd60e51b81526020600482015260096024820152683130b22fb0b1ba37b960b91b6044820152606401610651565b6001600160a01b0387167f18ab6b2ae3d64306c00ce663125f2bd680e441a098de1635bd7ad8b0d44965e48686610ccb8742611738565b6001600160a01b038c1660009081526002602052604090819020549051610cf594939291906116f9565b60405180910390a25050506001600160a01b039093166000908152600260205260409020439055505050565b8282610d2c826106ea565b6001600160a01b0316816001600160a01b031614610d785760405162461bcd60e51b81526020600482015260096024820152683130b22fb0b1ba37b960b91b6044820152606401610651565b6001600160a01b0385811660008181526020818152604080832080547fffffffffffffffffffffffff000000000000000000000000000000000000000016958916958617905560028252918290205482519485529084015290917f38a5a6e68f30ed1ab45860a4afb34bcb2fc00f22ca462d249b8a8d40cda6f7a3910160405180910390a2505050506001600160a01b03166000908152600260205260409020439055565b8383610e28826106ea565b6001600160a01b0316816001600160a01b031614610e745760405162461bcd60e51b81526020600482015260096024820152683130b22fb0b1ba37b960b91b6044820152606401610651565b6001600160a01b03868116600081815260016020908152604080832081518084018b90528251808203850181528184018085528151918601919091208652918452828520968a16808652968452828520429081905586865260029094529190932054928990526060810194909452608084015260a0830152907f5a5084339536bcab65f20799fcc58724588145ca054bd2be626174b27ba156f79060c001610b13565b8484610f22826106ea565b6001600160a01b0316816001600160a01b031614610f6e5760405162461bcd60e51b81526020600482015260096024820152683130b22fb0b1ba37b960b91b6044820152606401610651565b610f788342611738565b6001600160a01b03888116600081815260016020908152604080832081518084018d9052825180820385018152908301835280519084012084528252808320948a16835293905291909120919091557f5a5084339536bcab65f20799fcc58724588145ca054bd2be626174b27ba156f78686610ff48742611738565b6001600160a01b038c811660009081526002602090815260409182902054825196875294909216918501919091528301526060820152608001610cf5565b82805461103e9061177c565b90600052602060002090601f01602090048101928261106057600085556110a6565b82601f1061107957805160ff19168380011785556110a6565b828001600101855582156110a6579182015b828111156110a657825182559160200191906001019061108b565b506110b29291506110b6565b5090565b5b808211156110b257600081556001016110b7565b600067ffffffffffffffff808411156110e6576110e66117e8565b604051601f8501601f19908116603f0116810190828211818310171561110e5761110e6117e8565b8160405280935085815286868601111561112757600080fd5b858560208301376000602087830101525050509392505050565b80356001600160a01b038116811461115857600080fd5b919050565b600082601f83011261116e57600080fd5b61117d838335602085016110cb565b9392505050565b803560ff8116811461115857600080fd5b6000602082840312156111a757600080fd5b61117d82611141565b600080604083850312156111c357600080fd5b6111cc83611141565b91506111da60208401611141565b90509250929050565b6000806000606084860312156111f857600080fd5b61120184611141565b92506020840135915061121660408501611141565b90509250925092565b6000806000806080858703121561123557600080fd5b61123e85611141565b93506020850135925061125360408601611141565b9396929550929360600135925050565b60008060006060848603121561127857600080fd5b61128184611141565b925060208401359150604084013567ffffffffffffffff8111156112a457600080fd5b6112b08682870161115d565b9150509250925092565b600080600080608085870312156112d057600080fd5b6112d985611141565b935060208501359250604085013567ffffffffffffffff8111156112fc57600080fd5b6113088782880161115d565b949793965093946060013593505050565b6000806040838503121561132c57600080fd5b61133583611141565b9150602083013567ffffffffffffffff81111561135157600080fd5b8301601f8101851361136257600080fd5b611371858235602084016110cb565b9150509250929050565b600080600080600060a0868803121561139357600080fd5b61139c86611141565b94506113aa60208701611184565b935060408601359250606086013591506113c660808701611141565b90509295509295909350565b60008060008060008060c087890312156113eb57600080fd5b6113f487611141565b955061140260208801611184565b945060408701359350606087013592506080870135915061142560a08801611141565b90509295509295509295565b600080600080600080600060e0888a03121561144c57600080fd5b61145588611141565b965061146360208901611184565b955060408801359450606088013593506080880135925061148660a08901611141565b915060c0880135905092959891949750929550565b60008060008060008060c087890312156114b457600080fd5b6114bd87611141565b95506114cb60208801611184565b945060408701359350606087013592506080870135915060a087013567ffffffffffffffff8111156114fc57600080fd5b61150889828a0161115d565b9150509295509295509295565b600080600080600080600060e0888a03121561153057600080fd5b61153988611141565b965061154760208901611184565b955060408801359450606088013593506080880135925060a088013567ffffffffffffffff81111561157857600080fd5b6115848a828b0161115d565b92505060c0880135905092959891949750929550565b600081518084526115b2816020860160208601611750565b601f01601f19169290920160200192915050565b60006001600160f81b0319808a1683528089166001840152506bffffffffffffffffffffffff19808860601b166002840152866016840152808660601b166036840152507f7265766f6b654174747269627574650000000000000000000000000000000000604a8301528360598301528251611649816079850160208701611750565b9190910160790198975050505050505050565b60006001600160f81b0319808b168352808a166001840152506bffffffffffffffffffffffff19808960601b166002840152876016840152808760601b166036840152507f7365744174747269627574650000000000000000000000000000000000000000604a83015284605683015283516116df816076850160208801611750565b607692019182019290925260960198975050505050505050565b848152608060208201526000611712608083018661159a565b6040830194909452506060015292915050565b60208152600061117d602083018461159a565b6000821982111561174b5761174b6117d2565b500190565b60005b8381101561176b578181015183820152602001611753565b838111156106d85750506000910152565b600181811c9082168061179057607f821691505b602082108114156117b157634e487b7160e01b600052602260045260246000fd5b50919050565b60006000198214156117cb576117cb6117d2565b5060010190565b634e487b7160e01b600052601160045260246000fd5b634e487b7160e01b600052604160045260246000fdfea2646970667358221220dc1d9c4723801a483154fc1d8910ad4de1bb32e283e29704456dbff30253f61c64736f6c63430008060033","opcodes":"PUSH1 0x80 PUSH1 0x40 MSTORE CALLVALUE DUP1 ISZERO PUSH2 0x10 JUMPI PUSH1 0x0 DUP1 REVERT JUMPDEST POP PUSH2 0x1834 DUP1 PUSH2 0x20 PUSH1 0x0 CODECOPY PUSH1 0x0 RETURN INVALID PUSH1 0x80 PUSH1 0x40 MSTORE CALLVALUE DUP1 ISZERO PUSH2 0x10 JUMPI PUSH1 0x0 DUP1 REVERT JUMPDEST POP PUSH1 0x4 CALLDATASIZE LT PUSH2 0x16B JUMPI PUSH1 0x0 CALLDATALOAD PUSH1 0xE0 SHR DUP1 PUSH4 0x80B29F7C GT PUSH2 0xCD JUMPI DUP1 PUSH4 0xDE8B05BE GT PUSH2 0x81 JUMPI DUP1 PUSH4 0xE476AF5C GT PUSH2 0x66 JUMPI DUP1 PUSH4 0xE476AF5C EQ PUSH2 0x38D JUMPI DUP1 PUSH4 0xF00D4B5D EQ PUSH2 0x3A0 JUMPI DUP1 PUSH4 0xF96D0F9F EQ PUSH2 0x3B3 JUMPI PUSH1 0x0 DUP1 REVERT JUMPDEST DUP1 PUSH4 0xDE8B05BE EQ PUSH2 0x367 JUMPI DUP1 PUSH4 0xE3095E45 EQ PUSH2 0x37A JUMPI PUSH1 0x0 DUP1 REVERT JUMPDEST DUP1 PUSH4 0x93072684 GT PUSH2 0xB2 JUMPI DUP1 PUSH4 0x93072684 EQ PUSH2 0x32E JUMPI DUP1 PUSH4 0x9C2C1B2B EQ PUSH2 0x341 JUMPI DUP1 PUSH4 0xA7068D66 EQ PUSH2 0x354 JUMPI PUSH1 0x0 DUP1 REVERT JUMPDEST DUP1 PUSH4 0x80B29F7C EQ PUSH2 0x308 JUMPI DUP1 PUSH4 0x8733D4E8 EQ PUSH2 0x31B JUMPI PUSH1 0x0 DUP1 REVERT JUMPDEST DUP1 PUSH4 0x35118DE2 GT PUSH2 0x124 JUMPI DUP1 PUSH4 0x622B2A3C GT PUSH2 0x109 JUMPI DUP1 PUSH4 0x622B2A3C EQ PUSH2 0x263 JUMPI DUP1 PUSH4 0x70AE92D2 EQ PUSH2 0x2D5 JUMPI DUP1 PUSH4 0x7AD4B0A4 EQ PUSH2 0x2F5 JUMPI PUSH1 0x0 DUP1 REVERT JUMPDEST DUP1 PUSH4 0x35118DE2 EQ PUSH2 0x230 JUMPI DUP1 PUSH4 0x46A59E5F EQ PUSH2 0x250 JUMPI PUSH1 0x0 DUP1 REVERT JUMPDEST DUP1 PUSH4 0xD44625B GT PUSH2 0x155 JUMPI DUP1 PUSH4 0xD44625B EQ PUSH2 0x1CB JUMPI DUP1 PUSH4 0x123B5E98 EQ PUSH2 0x20A JUMPI DUP1 PUSH4 0x240CF1FA EQ PUSH2 0x21D JUMPI PUSH1 0x0 DUP1 REVERT JUMPDEST DUP1 PUSH3 0xC023DA EQ PUSH2 0x170 JUMPI DUP1 PUSH4 0x22914A7 EQ PUSH2 0x185 JUMPI JUMPDEST PUSH1 0x0 DUP1 REVERT JUMPDEST PUSH2 0x183 PUSH2 0x17E CALLDATASIZE PUSH1 0x4 PUSH2 0x1263 JUMP JUMPDEST PUSH2 0x3D3 JUMP JUMPDEST STOP JUMPDEST PUSH2 0x1AE PUSH2 0x193 CALLDATASIZE PUSH1 0x4 PUSH2 0x1195 JUMP JUMPDEST PUSH1 0x0 PUSH1 0x20 DUP2 SWAP1 MSTORE SWAP1 DUP2 MSTORE PUSH1 0x40 SWAP1 KECCAK256 SLOAD PUSH1 0x1 PUSH1 0x1 PUSH1 0xA0 SHL SUB AND DUP2 JUMP JUMPDEST PUSH1 0x40 MLOAD PUSH1 0x1 PUSH1 0x1 PUSH1 0xA0 SHL SUB SWAP1 SWAP2 AND DUP2 MSTORE PUSH1 0x20 ADD JUMPDEST PUSH1 0x40 MLOAD DUP1 SWAP2 SUB SWAP1 RETURN JUMPDEST PUSH2 0x1FC PUSH2 0x1D9 CALLDATASIZE PUSH1 0x4 PUSH2 0x11E3 JUMP JUMPDEST PUSH1 0x1 PUSH1 0x20 SWAP1 DUP2 MSTORE PUSH1 0x0 SWAP4 DUP5 MSTORE PUSH1 0x40 DUP1 DUP6 KECCAK256 DUP3 MSTORE SWAP3 DUP5 MSTORE DUP3 DUP5 KECCAK256 SWAP1 MSTORE DUP3 MSTORE SWAP1 KECCAK256 SLOAD DUP2 JUMP JUMPDEST PUSH1 0x40 MLOAD SWAP1 DUP2 MSTORE PUSH1 0x20 ADD PUSH2 0x1C2 JUMP JUMPDEST PUSH2 0x183 PUSH2 0x218 CALLDATASIZE PUSH1 0x4 PUSH2 0x1515 JUMP JUMPDEST PUSH2 0x3E4 JUMP JUMPDEST PUSH2 0x183 PUSH2 0x22B CALLDATASIZE PUSH1 0x4 PUSH2 0x137B JUMP JUMPDEST PUSH2 0x470 JUMP JUMPDEST PUSH2 0x243 PUSH2 0x23E CALLDATASIZE PUSH1 0x4 PUSH2 0x1195 JUMP JUMPDEST PUSH2 0x552 JUMP JUMPDEST PUSH1 0x40 MLOAD PUSH2 0x1C2 SWAP2 SWAP1 PUSH2 0x1725 JUMP JUMPDEST PUSH2 0x183 PUSH2 0x25E CALLDATASIZE PUSH1 0x4 PUSH2 0x1319 JUMP JUMPDEST PUSH2 0x5FE JUMP JUMPDEST PUSH2 0x2C5 PUSH2 0x271 CALLDATASIZE PUSH1 0x4 PUSH2 0x11E3 JUMP JUMPDEST PUSH1 0x1 PUSH1 0x1 PUSH1 0xA0 SHL SUB SWAP3 DUP4 AND PUSH1 0x0 SWAP1 DUP2 MSTORE PUSH1 0x1 PUSH1 0x20 SWAP1 DUP2 MSTORE PUSH1 0x40 DUP1 DUP4 KECCAK256 DUP2 MLOAD DUP1 DUP5 ADD SWAP7 SWAP1 SWAP7 MSTORE DUP2 MLOAD DUP1 DUP8 SUB DUP5 ADD DUP2 MSTORE SWAP6 DUP3 ADD DUP3 MSTORE DUP6 MLOAD SWAP6 DUP4 ADD SWAP6 SWAP1 SWAP6 KECCAK256 DUP4 MSTORE SWAP4 DUP2 MSTORE DUP4 DUP3 KECCAK256 SWAP3 SWAP1 SWAP5 AND DUP2 MSTORE SWAP3 MSTORE SWAP1 KECCAK256 SLOAD TIMESTAMP LT SWAP1 JUMP JUMPDEST PUSH1 0x40 MLOAD SWAP1 ISZERO ISZERO DUP2 MSTORE PUSH1 0x20 ADD PUSH2 0x1C2 JUMP JUMPDEST PUSH2 0x1FC PUSH2 0x2E3 CALLDATASIZE PUSH1 0x4 PUSH2 0x1195 JUMP JUMPDEST PUSH1 0x3 PUSH1 0x20 MSTORE PUSH1 0x0 SWAP1 DUP2 MSTORE PUSH1 0x40 SWAP1 KECCAK256 SLOAD DUP2 JUMP JUMPDEST PUSH2 0x183 PUSH2 0x303 CALLDATASIZE PUSH1 0x4 PUSH2 0x12BA JUMP JUMPDEST PUSH2 0x6CB JUMP JUMPDEST PUSH2 0x183 PUSH2 0x316 CALLDATASIZE PUSH1 0x4 PUSH2 0x11E3 JUMP JUMPDEST PUSH2 0x6DE JUMP JUMPDEST PUSH2 0x1AE PUSH2 0x329 CALLDATASIZE PUSH1 0x4 PUSH2 0x1195 JUMP JUMPDEST PUSH2 0x6EA JUMP JUMPDEST PUSH2 0x183 PUSH2 0x33C CALLDATASIZE PUSH1 0x4 PUSH2 0x13D2 JUMP JUMPDEST PUSH2 0x71A JUMP JUMPDEST PUSH2 0x183 PUSH2 0x34F CALLDATASIZE PUSH1 0x4 PUSH2 0x1431 JUMP JUMPDEST PUSH2 0x805 JUMP JUMPDEST PUSH2 0x183 PUSH2 0x362 CALLDATASIZE PUSH1 0x4 PUSH2 0x121F JUMP JUMPDEST PUSH2 0x8F3 JUMP JUMPDEST PUSH2 0x243 PUSH2 0x375 CALLDATASIZE PUSH1 0x4 PUSH2 0x1195 JUMP JUMPDEST PUSH2 0x900 JUMP JUMPDEST PUSH2 0x183 PUSH2 0x388 CALLDATASIZE PUSH1 0x4 PUSH2 0x1319 JUMP JUMPDEST PUSH2 0x927 JUMP JUMPDEST PUSH2 0x183 PUSH2 0x39B CALLDATASIZE PUSH1 0x4 PUSH2 0x149B JUMP JUMPDEST PUSH2 0x9E1 JUMP JUMPDEST PUSH2 0x183 PUSH2 0x3AE CALLDATASIZE PUSH1 0x4 PUSH2 0x11B0 JUMP JUMPDEST PUSH2 0xA60 JUMP JUMPDEST PUSH2 0x1FC PUSH2 0x3C1 CALLDATASIZE PUSH1 0x4 PUSH2 0x1195 JUMP JUMPDEST PUSH1 0x2 PUSH1 0x20 MSTORE PUSH1 0x0 SWAP1 DUP2 MSTORE PUSH1 0x40 SWAP1 KECCAK256 SLOAD DUP2 JUMP JUMPDEST PUSH2 0x3DF DUP4 CALLER DUP5 DUP5 PUSH2 0xA6F JUMP JUMPDEST POP POP POP JUMP JUMPDEST PUSH1 0x0 PUSH1 0x19 PUSH1 0xF8 SHL DUP2 ADDRESS PUSH1 0x3 DUP3 PUSH2 0x3F9 DUP14 PUSH2 0x6EA JUMP JUMPDEST PUSH1 0x1 PUSH1 0x1 PUSH1 0xA0 SHL SUB AND PUSH1 0x1 PUSH1 0x1 PUSH1 0xA0 SHL SUB AND DUP2 MSTORE PUSH1 0x20 ADD SWAP1 DUP2 MSTORE PUSH1 0x20 ADD PUSH1 0x0 KECCAK256 SLOAD DUP12 DUP9 DUP9 DUP9 PUSH1 0x40 MLOAD PUSH1 0x20 ADD PUSH2 0x435 SWAP9 SWAP8 SWAP7 SWAP6 SWAP5 SWAP4 SWAP3 SWAP2 SWAP1 PUSH2 0x165C JUMP JUMPDEST PUSH1 0x40 MLOAD PUSH1 0x20 DUP2 DUP4 SUB SUB DUP2 MSTORE SWAP1 PUSH1 0x40 MSTORE DUP1 MLOAD SWAP1 PUSH1 0x20 ADD KECCAK256 SWAP1 POP PUSH2 0x466 DUP9 PUSH2 0x45E DUP11 DUP11 DUP11 DUP11 DUP8 PUSH2 0xB3E JUMP JUMPDEST DUP7 DUP7 DUP7 PUSH2 0xC3D JUMP JUMPDEST POP POP POP POP POP POP POP POP JUMP JUMPDEST PUSH1 0x0 PUSH1 0x19 PUSH1 0xF8 SHL DUP2 ADDRESS PUSH1 0x3 DUP3 PUSH2 0x485 DUP12 PUSH2 0x6EA JUMP JUMPDEST PUSH1 0x1 PUSH1 0x1 PUSH1 0xA0 SHL SUB AND DUP2 MSTORE PUSH1 0x20 DUP1 DUP3 ADD SWAP3 SWAP1 SWAP3 MSTORE PUSH1 0x40 SWAP1 DUP2 ADD PUSH1 0x0 KECCAK256 SLOAD DUP2 MLOAD PUSH1 0x1 PUSH1 0x1 PUSH1 0xF8 SHL SUB NOT SWAP7 DUP8 AND DUP2 DUP6 ADD MSTORE SWAP5 SWAP1 SWAP6 AND PUSH1 0x21 DUP6 ADD MSTORE PUSH12 0xFFFFFFFFFFFFFFFFFFFFFFFF NOT PUSH1 0x60 SWAP4 DUP5 SHL DUP2 AND PUSH1 0x22 DUP7 ADD MSTORE PUSH1 0x36 DUP6 ADD SWAP6 SWAP1 SWAP6 MSTORE DUP11 DUP4 SHL DUP6 AND PUSH1 0x56 DUP6 ADD MSTORE PUSH32 0x6368616E67654F776E6572000000000000000000000000000000000000000000 PUSH1 0x6A DUP6 ADD MSTORE SWAP2 DUP7 SWAP1 SHL SWAP1 SWAP4 AND PUSH1 0x75 DUP4 ADD MSTORE DUP1 MLOAD PUSH1 0x69 DUP2 DUP5 SUB ADD DUP2 MSTORE PUSH1 0x89 SWAP1 SWAP3 ADD SWAP1 MSTORE DUP1 MLOAD SWAP2 ADD KECCAK256 SWAP1 POP PUSH2 0x54A DUP7 PUSH2 0x544 DUP2 DUP9 DUP9 DUP9 DUP8 PUSH2 0xB3E JUMP JUMPDEST DUP5 PUSH2 0xD21 JUMP JUMPDEST POP POP POP POP POP POP JUMP JUMPDEST PUSH1 0x1 PUSH1 0x1 PUSH1 0xA0 SHL SUB DUP2 AND PUSH1 0x0 SWAP1 DUP2 MSTORE PUSH1 0x5 PUSH1 0x20 MSTORE PUSH1 0x40 SWAP1 KECCAK256 DUP1 SLOAD PUSH1 0x60 SWAP2 SWAP1 PUSH2 0x579 SWAP1 PUSH2 0x177C JUMP JUMPDEST DUP1 PUSH1 0x1F ADD PUSH1 0x20 DUP1 SWAP2 DIV MUL PUSH1 0x20 ADD PUSH1 0x40 MLOAD SWAP1 DUP2 ADD PUSH1 0x40 MSTORE DUP1 SWAP3 SWAP2 SWAP1 DUP2 DUP2 MSTORE PUSH1 0x20 ADD DUP3 DUP1 SLOAD PUSH2 0x5A5 SWAP1 PUSH2 0x177C JUMP JUMPDEST DUP1 ISZERO PUSH2 0x5F2 JUMPI DUP1 PUSH1 0x1F LT PUSH2 0x5C7 JUMPI PUSH2 0x100 DUP1 DUP4 SLOAD DIV MUL DUP4 MSTORE SWAP2 PUSH1 0x20 ADD SWAP2 PUSH2 0x5F2 JUMP JUMPDEST DUP3 ADD SWAP2 SWAP1 PUSH1 0x0 MSTORE PUSH1 0x20 PUSH1 0x0 KECCAK256 SWAP1 JUMPDEST DUP2 SLOAD DUP2 MSTORE SWAP1 PUSH1 0x1 ADD SWAP1 PUSH1 0x20 ADD DUP1 DUP4 GT PUSH2 0x5D5 JUMPI DUP3 SWAP1 SUB PUSH1 0x1F AND DUP3 ADD SWAP2 JUMPDEST POP POP POP POP POP SWAP1 POP SWAP2 SWAP1 POP JUMP JUMPDEST DUP2 CALLER PUSH2 0x609 DUP3 PUSH2 0x6EA JUMP JUMPDEST PUSH1 0x1 PUSH1 0x1 PUSH1 0xA0 SHL SUB AND DUP2 PUSH1 0x1 PUSH1 0x1 PUSH1 0xA0 SHL SUB AND EQ PUSH2 0x65A JUMPI PUSH1 0x40 MLOAD PUSH3 0x461BCD PUSH1 0xE5 SHL DUP2 MSTORE PUSH1 0x20 PUSH1 0x4 DUP3 ADD MSTORE PUSH1 0x9 PUSH1 0x24 DUP3 ADD MSTORE PUSH9 0x3130B22FB0B1BA37B9 PUSH1 0xB9 SHL PUSH1 0x44 DUP3 ADD MSTORE PUSH1 0x64 ADD JUMPDEST PUSH1 0x40 MLOAD DUP1 SWAP2 SUB SWAP1 REVERT JUMPDEST PUSH1 0x1 PUSH1 0x1 PUSH1 0xA0 SHL SUB DUP5 AND PUSH1 0x0 SWAP1 DUP2 MSTORE PUSH1 0x4 PUSH1 0x20 SWAP1 DUP2 MSTORE PUSH1 0x40 SWAP1 SWAP2 KECCAK256 DUP5 MLOAD PUSH2 0x683 SWAP3 DUP7 ADD SWAP1 PUSH2 0x1032 JUMP JUMPDEST POP DUP4 PUSH1 0x1 PUSH1 0x1 PUSH1 0xA0 SHL SUB AND PUSH32 0xDFB356FD3336224C49CEBFC4C41E3DDE8125AAD9A1AFAB6A91B898E449F41C70 DUP5 PUSH1 0x40 MLOAD PUSH2 0x6BD SWAP2 SWAP1 PUSH2 0x1725 JUMP JUMPDEST PUSH1 0x40 MLOAD DUP1 SWAP2 SUB SWAP1 LOG2 POP POP POP POP JUMP JUMPDEST PUSH2 0x6D8 DUP5 CALLER DUP6 DUP6 DUP6 PUSH2 0xC3D JUMP JUMPDEST POP POP POP POP JUMP JUMPDEST PUSH2 0x3DF DUP4 CALLER DUP5 DUP5 PUSH2 0xE1D JUMP JUMPDEST PUSH1 0x1 PUSH1 0x1 PUSH1 0xA0 SHL SUB DUP1 DUP3 AND PUSH1 0x0 SWAP1 DUP2 MSTORE PUSH1 0x20 DUP2 SWAP1 MSTORE PUSH1 0x40 DUP2 KECCAK256 SLOAD SWAP1 SWAP2 AND DUP1 ISZERO PUSH2 0x713 JUMPI SWAP3 SWAP2 POP POP JUMP JUMPDEST POP SWAP1 SWAP2 SWAP1 POP JUMP JUMPDEST PUSH1 0x0 PUSH1 0x19 PUSH1 0xF8 SHL DUP2 ADDRESS PUSH1 0x3 DUP3 PUSH2 0x72F DUP13 PUSH2 0x6EA JUMP JUMPDEST PUSH1 0x1 PUSH1 0x1 PUSH1 0xA0 SHL SUB AND DUP2 MSTORE PUSH1 0x20 DUP1 DUP3 ADD SWAP3 SWAP1 SWAP3 MSTORE PUSH1 0x40 SWAP1 DUP2 ADD PUSH1 0x0 KECCAK256 SLOAD DUP2 MLOAD PUSH1 0x1 PUSH1 0x1 PUSH1 0xF8 SHL SUB NOT SWAP7 DUP8 AND DUP2 DUP6 ADD MSTORE SWAP5 SWAP1 SWAP6 AND PUSH1 0x21 DUP6 ADD MSTORE PUSH12 0xFFFFFFFFFFFFFFFFFFFFFFFF NOT PUSH1 0x60 SWAP4 DUP5 SHL DUP2 AND PUSH1 0x22 DUP7 ADD MSTORE PUSH1 0x36 DUP6 ADD SWAP6 SWAP1 SWAP6 MSTORE DUP12 DUP4 SHL DUP6 AND PUSH1 0x56 DUP6 ADD MSTORE PUSH32 0x7265766F6B6544656C6567617465000000000000000000000000000000000000 PUSH1 0x6A DUP6 ADD MSTORE PUSH1 0x78 DUP5 ADD DUP9 SWAP1 MSTORE SWAP2 DUP7 SWAP1 SHL SWAP1 SWAP4 AND PUSH1 0x98 DUP4 ADD MSTORE DUP1 MLOAD PUSH1 0x8C DUP2 DUP5 SUB ADD DUP2 MSTORE PUSH1 0xAC SWAP1 SWAP3 ADD SWAP1 MSTORE DUP1 MLOAD SWAP2 ADD KECCAK256 SWAP1 POP PUSH2 0x7FC DUP8 PUSH2 0x7F5 DUP2 DUP10 DUP10 DUP10 DUP8 PUSH2 0xB3E JUMP JUMPDEST DUP6 DUP6 PUSH2 0xE1D JUMP JUMPDEST POP POP POP POP POP POP POP JUMP JUMPDEST PUSH1 0x0 PUSH1 0x19 PUSH1 0xF8 SHL DUP2 ADDRESS PUSH1 0x3 DUP3 PUSH2 0x81A DUP14 PUSH2 0x6EA JUMP JUMPDEST PUSH1 0x1 PUSH1 0x1 PUSH1 0xA0 SHL SUB AND DUP2 MSTORE PUSH1 0x20 DUP1 DUP3 ADD SWAP3 SWAP1 SWAP3 MSTORE PUSH1 0x40 SWAP1 DUP2 ADD PUSH1 0x0 KECCAK256 SLOAD SWAP1 MLOAD PUSH1 0x1 PUSH1 0x1 PUSH1 0xF8 SHL SUB NOT SWAP6 DUP7 AND SWAP3 DUP2 ADD SWAP3 SWAP1 SWAP3 MSTORE SWAP3 SWAP1 SWAP4 AND PUSH1 0x21 DUP5 ADD MSTORE PUSH1 0x60 SWAP1 DUP2 SHL PUSH12 0xFFFFFFFFFFFFFFFFFFFFFFFF NOT SWAP1 DUP2 AND PUSH1 0x22 DUP6 ADD MSTORE PUSH1 0x36 DUP5 ADD SWAP3 SWAP1 SWAP3 MSTORE DUP11 DUP2 SHL DUP3 AND PUSH1 0x56 DUP5 ADD MSTORE PUSH32 0x61646444656C6567617465000000000000000000000000000000000000000000 PUSH1 0x6A DUP5 ADD MSTORE PUSH1 0x75 DUP4 ADD DUP8 SWAP1 MSTORE DUP6 SWAP1 SHL AND PUSH1 0x95 DUP3 ADD MSTORE PUSH1 0xA9 DUP2 ADD DUP4 SWAP1 MSTORE PUSH1 0xC9 ADD PUSH1 0x40 MLOAD PUSH1 0x20 DUP2 DUP4 SUB SUB DUP2 MSTORE SWAP1 PUSH1 0x40 MSTORE DUP1 MLOAD SWAP1 PUSH1 0x20 ADD KECCAK256 SWAP1 POP PUSH2 0x466 DUP9 PUSH2 0x8EB DUP11 DUP11 DUP11 DUP11 DUP8 PUSH2 0xB3E JUMP JUMPDEST DUP7 DUP7 DUP7 PUSH2 0xF17 JUMP JUMPDEST PUSH2 0x6D8 DUP5 CALLER DUP6 DUP6 DUP6 PUSH2 0xF17 JUMP JUMPDEST PUSH1 0x1 PUSH1 0x1 PUSH1 0xA0 SHL SUB DUP2 AND PUSH1 0x0 SWAP1 DUP2 MSTORE PUSH1 0x4 PUSH1 0x20 MSTORE PUSH1 0x40 SWAP1 KECCAK256 DUP1 SLOAD PUSH1 0x60 SWAP2 SWAP1 PUSH2 0x579 SWAP1 PUSH2 0x177C JUMP JUMPDEST DUP2 CALLER PUSH2 0x932 DUP3 PUSH2 0x6EA JUMP JUMPDEST PUSH1 0x1 PUSH1 0x1 PUSH1 0xA0 SHL SUB AND DUP2 PUSH1 0x1 PUSH1 0x1 PUSH1 0xA0 SHL SUB AND EQ PUSH2 0x97E JUMPI PUSH1 0x40 MLOAD PUSH3 0x461BCD PUSH1 0xE5 SHL DUP2 MSTORE PUSH1 0x20 PUSH1 0x4 DUP3 ADD MSTORE PUSH1 0x9 PUSH1 0x24 DUP3 ADD MSTORE PUSH9 0x3130B22FB0B1BA37B9 PUSH1 0xB9 SHL PUSH1 0x44 DUP3 ADD MSTORE PUSH1 0x64 ADD PUSH2 0x651 JUMP JUMPDEST PUSH1 0x1 PUSH1 0x1 PUSH1 0xA0 SHL SUB DUP5 AND PUSH1 0x0 SWAP1 DUP2 MSTORE PUSH1 0x5 PUSH1 0x20 SWAP1 DUP2 MSTORE PUSH1 0x40 SWAP1 SWAP2 KECCAK256 DUP5 MLOAD PUSH2 0x9A7 SWAP3 DUP7 ADD SWAP1 PUSH2 0x1032 JUMP JUMPDEST POP DUP4 PUSH1 0x1 PUSH1 0x1 PUSH1 0xA0 SHL SUB AND PUSH32 0x29EE3D96F0A07374C7D8A187B1D3B3C50ACD35A617C7D387CAFAC1E0836DDD57 DUP5 PUSH1 0x40 MLOAD PUSH2 0x6BD SWAP2 SWAP1 PUSH2 0x1725 JUMP JUMPDEST PUSH1 0x0 PUSH1 0x19 PUSH1 0xF8 SHL DUP2 ADDRESS PUSH1 0x3 DUP3 PUSH2 0x9F6 DUP13 PUSH2 0x6EA JUMP JUMPDEST PUSH1 0x1 PUSH1 0x1 PUSH1 0xA0 SHL SUB AND PUSH1 0x1 PUSH1 0x1 PUSH1 0xA0 SHL SUB AND DUP2 MSTORE PUSH1 0x20 ADD SWAP1 DUP2 MSTORE PUSH1 0x20 ADD PUSH1 0x0 KECCAK256 SLOAD DUP11 DUP8 DUP8 PUSH1 0x40 MLOAD PUSH1 0x20 ADD PUSH2 0xA30 SWAP8 SWAP7 SWAP6 SWAP5 SWAP4 SWAP3 SWAP2 SWAP1 PUSH2 0x15C6 JUMP JUMPDEST PUSH1 0x40 MLOAD PUSH1 0x20 DUP2 DUP4 SUB SUB DUP2 MSTORE SWAP1 PUSH1 0x40 MSTORE DUP1 MLOAD SWAP1 PUSH1 0x20 ADD KECCAK256 SWAP1 POP PUSH2 0x7FC DUP8 PUSH2 0xA59 DUP10 DUP10 DUP10 DUP10 DUP8 PUSH2 0xB3E JUMP JUMPDEST DUP6 DUP6 PUSH2 0xA6F JUMP JUMPDEST PUSH2 0xA6B DUP3 CALLER DUP4 PUSH2 0xD21 JUMP JUMPDEST POP POP JUMP JUMPDEST DUP4 DUP4 PUSH2 0xA7A DUP3 PUSH2 0x6EA JUMP JUMPDEST PUSH1 0x1 PUSH1 0x1 PUSH1 0xA0 SHL SUB AND DUP2 PUSH1 0x1 PUSH1 0x1 PUSH1 0xA0 SHL SUB AND EQ PUSH2 0xAC6 JUMPI PUSH1 0x40 MLOAD PUSH3 0x461BCD PUSH1 0xE5 SHL DUP2 MSTORE PUSH1 0x20 PUSH1 0x4 DUP3 ADD MSTORE PUSH1 0x9 PUSH1 0x24 DUP3 ADD MSTORE PUSH9 0x3130B22FB0B1BA37B9 PUSH1 0xB9 SHL PUSH1 0x44 DUP3 ADD MSTORE PUSH1 0x64 ADD PUSH2 0x651 JUMP JUMPDEST PUSH1 0x1 PUSH1 0x1 PUSH1 0xA0 SHL SUB DUP7 AND PUSH1 0x0 DUP2 DUP2 MSTORE PUSH1 0x2 PUSH1 0x20 MSTORE PUSH1 0x40 DUP1 DUP3 KECCAK256 SLOAD SWAP1 MLOAD PUSH32 0x18AB6B2AE3D64306C00CE663125F2BD680E441A098DE1635BD7AD8B0D44965E4 SWAP3 PUSH2 0xB13 SWAP3 DUP10 SWAP3 DUP10 SWAP3 SWAP2 SWAP1 PUSH2 0x16F9 JUMP JUMPDEST PUSH1 0x40 MLOAD DUP1 SWAP2 SUB SWAP1 LOG2 POP POP POP PUSH1 0x1 PUSH1 0x1 PUSH1 0xA0 SHL SUB SWAP1 SWAP3 AND PUSH1 0x0 SWAP1 DUP2 MSTORE PUSH1 0x2 PUSH1 0x20 MSTORE PUSH1 0x40 SWAP1 KECCAK256 NUMBER SWAP1 SSTORE POP POP JUMP JUMPDEST PUSH1 0x40 DUP1 MLOAD PUSH1 0x0 DUP1 DUP3 MSTORE PUSH1 0x20 DUP3 ADD DUP1 DUP5 MSTORE DUP5 SWAP1 MSTORE PUSH1 0xFF DUP8 AND SWAP3 DUP3 ADD SWAP3 SWAP1 SWAP3 MSTORE PUSH1 0x60 DUP2 ADD DUP6 SWAP1 MSTORE PUSH1 0x80 DUP2 ADD DUP5 SWAP1 MSTORE DUP2 SWAP1 PUSH1 0x1 SWAP1 PUSH1 0xA0 ADD PUSH1 0x20 PUSH1 0x40 MLOAD PUSH1 0x20 DUP2 SUB SWAP1 DUP1 DUP5 SUB SWAP1 DUP6 GAS STATICCALL ISZERO DUP1 ISZERO PUSH2 0xB94 JUMPI RETURNDATASIZE PUSH1 0x0 DUP1 RETURNDATACOPY RETURNDATASIZE PUSH1 0x0 REVERT JUMPDEST POP POP POP PUSH1 0x20 PUSH1 0x40 MLOAD SUB MLOAD SWAP1 POP PUSH2 0xBA9 DUP8 PUSH2 0x6EA JUMP JUMPDEST PUSH1 0x1 PUSH1 0x1 PUSH1 0xA0 SHL SUB AND DUP2 PUSH1 0x1 PUSH1 0x1 PUSH1 0xA0 SHL SUB AND EQ PUSH2 0xC09 JUMPI PUSH1 0x40 MLOAD PUSH3 0x461BCD PUSH1 0xE5 SHL DUP2 MSTORE PUSH1 0x20 PUSH1 0x4 DUP3 ADD MSTORE PUSH1 0xD PUSH1 0x24 DUP3 ADD MSTORE PUSH32 0x6261645F7369676E617475726500000000000000000000000000000000000000 PUSH1 0x44 DUP3 ADD MSTORE PUSH1 0x64 ADD PUSH2 0x651 JUMP JUMPDEST PUSH1 0x1 PUSH1 0x1 PUSH1 0xA0 SHL SUB DUP2 AND PUSH1 0x0 SWAP1 DUP2 MSTORE PUSH1 0x3 PUSH1 0x20 MSTORE PUSH1 0x40 DUP2 KECCAK256 DUP1 SLOAD SWAP2 PUSH2 0xC2D DUP4 PUSH2 0x17B7 JUMP JUMPDEST SWAP1 SWAP2 SSTORE POP SWAP1 SWAP8 SWAP7 POP POP POP POP POP POP POP JUMP JUMPDEST DUP5 DUP5 PUSH2 0xC48 DUP3 PUSH2 0x6EA JUMP JUMPDEST PUSH1 0x1 PUSH1 0x1 PUSH1 0xA0 SHL SUB AND DUP2 PUSH1 0x1 PUSH1 0x1 PUSH1 0xA0 SHL SUB AND EQ PUSH2 0xC94 JUMPI PUSH1 0x40 MLOAD PUSH3 0x461BCD PUSH1 0xE5 SHL DUP2 MSTORE PUSH1 0x20 PUSH1 0x4 DUP3 ADD MSTORE PUSH1 0x9 PUSH1 0x24 DUP3 ADD MSTORE PUSH9 0x3130B22FB0B1BA37B9 PUSH1 0xB9 SHL PUSH1 0x44 DUP3 ADD MSTORE PUSH1 0x64 ADD PUSH2 0x651 JUMP JUMPDEST PUSH1 0x1 PUSH1 0x1 PUSH1 0xA0 SHL SUB DUP8 AND PUSH32 0x18AB6B2AE3D64306C00CE663125F2BD680E441A098DE1635BD7AD8B0D44965E4 DUP7 DUP7 PUSH2 0xCCB DUP8 TIMESTAMP PUSH2 0x1738 JUMP JUMPDEST PUSH1 0x1 PUSH1 0x1 PUSH1 0xA0 SHL SUB DUP13 AND PUSH1 0x0 SWAP1 DUP2 MSTORE PUSH1 0x2 PUSH1 0x20 MSTORE PUSH1 0x40 SWAP1 DUP2 SWAP1 KECCAK256 SLOAD SWAP1 MLOAD PUSH2 0xCF5 SWAP5 SWAP4 SWAP3 SWAP2 SWAP1 PUSH2 0x16F9 JUMP JUMPDEST PUSH1 0x40 MLOAD DUP1 SWAP2 SUB SWAP1 LOG2 POP POP POP PUSH1 0x1 PUSH1 0x1 PUSH1 0xA0 SHL SUB SWAP1 SWAP4 AND PUSH1 0x0 SWAP1 DUP2 MSTORE PUSH1 0x2 PUSH1 0x20 MSTORE PUSH1 0x40 SWAP1 KECCAK256 NUMBER SWAP1 SSTORE POP POP POP JUMP JUMPDEST DUP3 DUP3 PUSH2 0xD2C DUP3 PUSH2 0x6EA JUMP JUMPDEST PUSH1 0x1 PUSH1 0x1 PUSH1 0xA0 SHL SUB AND DUP2 PUSH1 0x1 PUSH1 0x1 PUSH1 0xA0 SHL SUB AND EQ PUSH2 0xD78 JUMPI PUSH1 0x40 MLOAD PUSH3 0x461BCD PUSH1 0xE5 SHL DUP2 MSTORE PUSH1 0x20 PUSH1 0x4 DUP3 ADD MSTORE PUSH1 0x9 PUSH1 0x24 DUP3 ADD MSTORE PUSH9 0x3130B22FB0B1BA37B9 PUSH1 0xB9 SHL PUSH1 0x44 DUP3 ADD MSTORE PUSH1 0x64 ADD PUSH2 0x651 JUMP JUMPDEST PUSH1 0x1 PUSH1 0x1 PUSH1 0xA0 SHL SUB DUP6 DUP2 AND PUSH1 0x0 DUP2 DUP2 MSTORE PUSH1 0x20 DUP2 DUP2 MSTORE PUSH1 0x40 DUP1 DUP4 KECCAK256 DUP1 SLOAD PUSH32 0xFFFFFFFFFFFFFFFFFFFFFFFF0000000000000000000000000000000000000000 AND SWAP6 DUP10 AND SWAP6 DUP7 OR SWAP1 SSTORE PUSH1 0x2 DUP3 MSTORE SWAP2 DUP3 SWAP1 KECCAK256 SLOAD DUP3 MLOAD SWAP5 DUP6 MSTORE SWAP1 DUP5 ADD MSTORE SWAP1 SWAP2 PUSH32 0x38A5A6E68F30ED1AB45860A4AFB34BCB2FC00F22CA462D249B8A8D40CDA6F7A3 SWAP2 ADD PUSH1 0x40 MLOAD DUP1 SWAP2 SUB SWAP1 LOG2 POP POP POP POP PUSH1 0x1 PUSH1 0x1 PUSH1 0xA0 SHL SUB AND PUSH1 0x0 SWAP1 DUP2 MSTORE PUSH1 0x2 PUSH1 0x20 MSTORE PUSH1 0x40 SWAP1 KECCAK256 NUMBER SWAP1 SSTORE JUMP JUMPDEST DUP4 DUP4 PUSH2 0xE28 DUP3 PUSH2 0x6EA JUMP JUMPDEST PUSH1 0x1 PUSH1 0x1 PUSH1 0xA0 SHL SUB AND DUP2 PUSH1 0x1 PUSH1 0x1 PUSH1 0xA0 SHL SUB AND EQ PUSH2 0xE74 JUMPI PUSH1 0x40 MLOAD PUSH3 0x461BCD PUSH1 0xE5 SHL DUP2 MSTORE PUSH1 0x20 PUSH1 0x4 DUP3 ADD MSTORE PUSH1 0x9 PUSH1 0x24 DUP3 ADD MSTORE PUSH9 0x3130B22FB0B1BA37B9 PUSH1 0xB9 SHL PUSH1 0x44 DUP3 ADD MSTORE PUSH1 0x64 ADD PUSH2 0x651 JUMP JUMPDEST PUSH1 0x1 PUSH1 0x1 PUSH1 0xA0 SHL SUB DUP7 DUP2 AND PUSH1 0x0 DUP2 DUP2 MSTORE PUSH1 0x1 PUSH1 0x20 SWAP1 DUP2 MSTORE PUSH1 0x40 DUP1 DUP4 KECCAK256 DUP2 MLOAD DUP1 DUP5 ADD DUP12 SWAP1 MSTORE DUP3 MLOAD DUP1 DUP3 SUB DUP6 ADD DUP2 MSTORE DUP2 DUP5 ADD DUP1 DUP6 MSTORE DUP2 MLOAD SWAP2 DUP7 ADD SWAP2 SWAP1 SWAP2 KECCAK256 DUP7 MSTORE SWAP2 DUP5 MSTORE DUP3 DUP6 KECCAK256 SWAP7 DUP11 AND DUP1 DUP7 MSTORE SWAP7 DUP5 MSTORE DUP3 DUP6 KECCAK256 TIMESTAMP SWAP1 DUP2 SWAP1 SSTORE DUP7 DUP7 MSTORE PUSH1 0x2 SWAP1 SWAP5 MSTORE SWAP2 SWAP1 SWAP4 KECCAK256 SLOAD SWAP3 DUP10 SWAP1 MSTORE PUSH1 0x60 DUP2 ADD SWAP5 SWAP1 SWAP5 MSTORE PUSH1 0x80 DUP5 ADD MSTORE PUSH1 0xA0 DUP4 ADD MSTORE SWAP1 PUSH32 0x5A5084339536BCAB65F20799FCC58724588145CA054BD2BE626174B27BA156F7 SWAP1 PUSH1 0xC0 ADD PUSH2 0xB13 JUMP JUMPDEST DUP5 DUP5 PUSH2 0xF22 DUP3 PUSH2 0x6EA JUMP JUMPDEST PUSH1 0x1 PUSH1 0x1 PUSH1 0xA0 SHL SUB AND DUP2 PUSH1 0x1 PUSH1 0x1 PUSH1 0xA0 SHL SUB AND EQ PUSH2 0xF6E JUMPI PUSH1 0x40 MLOAD PUSH3 0x461BCD PUSH1 0xE5 SHL DUP2 MSTORE PUSH1 0x20 PUSH1 0x4 DUP3 ADD MSTORE PUSH1 0x9 PUSH1 0x24 DUP3 ADD MSTORE PUSH9 0x3130B22FB0B1BA37B9 PUSH1 0xB9 SHL PUSH1 0x44 DUP3 ADD MSTORE PUSH1 0x64 ADD PUSH2 0x651 JUMP JUMPDEST PUSH2 0xF78 DUP4 TIMESTAMP PUSH2 0x1738 JUMP JUMPDEST PUSH1 0x1 PUSH1 0x1 PUSH1 0xA0 SHL SUB DUP9 DUP2 AND PUSH1 0x0 DUP2 DUP2 MSTORE PUSH1 0x1 PUSH1 0x20 SWAP1 DUP2 MSTORE PUSH1 0x40 DUP1 DUP4 KECCAK256 DUP2 MLOAD DUP1 DUP5 ADD DUP14 SWAP1 MSTORE DUP3 MLOAD DUP1 DUP3 SUB DUP6 ADD DUP2 MSTORE SWAP1 DUP4 ADD DUP4 MSTORE DUP1 MLOAD SWAP1 DUP5 ADD KECCAK256 DUP5 MSTORE DUP3 MSTORE DUP1 DUP4 KECCAK256 SWAP5 DUP11 AND DUP4 MSTORE SWAP4 SWAP1 MSTORE SWAP2 SWAP1 SWAP2 KECCAK256 SWAP2 SWAP1 SWAP2 SSTORE PUSH32 0x5A5084339536BCAB65F20799FCC58724588145CA054BD2BE626174B27BA156F7 DUP7 DUP7 PUSH2 0xFF4 DUP8 TIMESTAMP PUSH2 0x1738 JUMP JUMPDEST PUSH1 0x1 PUSH1 0x1 PUSH1 0xA0 SHL SUB DUP13 DUP2 AND PUSH1 0x0 SWAP1 DUP2 MSTORE PUSH1 0x2 PUSH1 0x20 SWAP1 DUP2 MSTORE PUSH1 0x40 SWAP2 DUP3 SWAP1 KECCAK256 SLOAD DUP3 MLOAD SWAP7 DUP8 MSTORE SWAP5 SWAP1 SWAP3 AND SWAP2 DUP6 ADD SWAP2 SWAP1 SWAP2 MSTORE DUP4 ADD MSTORE PUSH1 0x60 DUP3 ADD MSTORE PUSH1 0x80 ADD PUSH2 0xCF5 JUMP JUMPDEST DUP3 DUP1 SLOAD PUSH2 0x103E SWAP1 PUSH2 0x177C JUMP JUMPDEST SWAP1 PUSH1 0x0 MSTORE PUSH1 0x20 PUSH1 0x0 KECCAK256 SWAP1 PUSH1 0x1F ADD PUSH1 0x20 SWAP1 DIV DUP2 ADD SWAP3 DUP3 PUSH2 0x1060 JUMPI PUSH1 0x0 DUP6 SSTORE PUSH2 0x10A6 JUMP JUMPDEST DUP3 PUSH1 0x1F LT PUSH2 0x1079 JUMPI DUP1 MLOAD PUSH1 0xFF NOT AND DUP4 DUP1 ADD OR DUP6 SSTORE PUSH2 0x10A6 JUMP JUMPDEST DUP3 DUP1 ADD PUSH1 0x1 ADD DUP6 SSTORE DUP3 ISZERO PUSH2 0x10A6 JUMPI SWAP2 DUP3 ADD JUMPDEST DUP3 DUP2 GT ISZERO PUSH2 0x10A6 JUMPI DUP3 MLOAD DUP3 SSTORE SWAP2 PUSH1 0x20 ADD SWAP2 SWAP1 PUSH1 0x1 ADD SWAP1 PUSH2 0x108B JUMP JUMPDEST POP PUSH2 0x10B2 SWAP3 SWAP2 POP PUSH2 0x10B6 JUMP JUMPDEST POP SWAP1 JUMP JUMPDEST JUMPDEST DUP1 DUP3 GT ISZERO PUSH2 0x10B2 JUMPI PUSH1 0x0 DUP2 SSTORE PUSH1 0x1 ADD PUSH2 0x10B7 JUMP JUMPDEST PUSH1 0x0 PUSH8 0xFFFFFFFFFFFFFFFF DUP1 DUP5 GT ISZERO PUSH2 0x10E6 JUMPI PUSH2 0x10E6 PUSH2 0x17E8 JUMP JUMPDEST PUSH1 0x40 MLOAD PUSH1 0x1F DUP6 ADD PUSH1 0x1F NOT SWAP1 DUP2 AND PUSH1 0x3F ADD AND DUP2 ADD SWAP1 DUP3 DUP3 GT DUP2 DUP4 LT OR ISZERO PUSH2 0x110E JUMPI PUSH2 0x110E PUSH2 0x17E8 JUMP JUMPDEST DUP2 PUSH1 0x40 MSTORE DUP1 SWAP4 POP DUP6 DUP2 MSTORE DUP7 DUP7 DUP7 ADD GT ISZERO PUSH2 0x1127 JUMPI PUSH1 0x0 DUP1 REVERT JUMPDEST DUP6 DUP6 PUSH1 0x20 DUP4 ADD CALLDATACOPY PUSH1 0x0 PUSH1 0x20 DUP8 DUP4 ADD ADD MSTORE POP POP POP SWAP4 SWAP3 POP POP POP JUMP JUMPDEST DUP1 CALLDATALOAD PUSH1 0x1 PUSH1 0x1 PUSH1 0xA0 SHL SUB DUP2 AND DUP2 EQ PUSH2 0x1158 JUMPI PUSH1 0x0 DUP1 REVERT JUMPDEST SWAP2 SWAP1 POP JUMP JUMPDEST PUSH1 0x0 DUP3 PUSH1 0x1F DUP4 ADD SLT PUSH2 0x116E JUMPI PUSH1 0x0 DUP1 REVERT JUMPDEST PUSH2 0x117D DUP4 DUP4 CALLDATALOAD PUSH1 0x20 DUP6 ADD PUSH2 0x10CB JUMP JUMPDEST SWAP4 SWAP3 POP POP POP JUMP JUMPDEST DUP1 CALLDATALOAD PUSH1 0xFF DUP2 AND DUP2 EQ PUSH2 0x1158 JUMPI PUSH1 0x0 DUP1 REVERT JUMPDEST PUSH1 0x0 PUSH1 0x20 DUP3 DUP5 SUB SLT ISZERO PUSH2 0x11A7 JUMPI PUSH1 0x0 DUP1 REVERT JUMPDEST PUSH2 0x117D DUP3 PUSH2 0x1141 JUMP JUMPDEST PUSH1 0x0 DUP1 PUSH1 0x40 DUP4 DUP6 SUB SLT ISZERO PUSH2 0x11C3 JUMPI PUSH1 0x0 DUP1 REVERT JUMPDEST PUSH2 0x11CC DUP4 PUSH2 0x1141 JUMP JUMPDEST SWAP2 POP PUSH2 0x11DA PUSH1 0x20 DUP5 ADD PUSH2 0x1141 JUMP JUMPDEST SWAP1 POP SWAP3 POP SWAP3 SWAP1 POP JUMP JUMPDEST PUSH1 0x0 DUP1 PUSH1 0x0 PUSH1 0x60 DUP5 DUP7 SUB SLT ISZERO PUSH2 0x11F8 JUMPI PUSH1 0x0 DUP1 REVERT JUMPDEST PUSH2 0x1201 DUP5 PUSH2 0x1141 JUMP JUMPDEST SWAP3 POP PUSH1 0x20 DUP5 ADD CALLDATALOAD SWAP2 POP PUSH2 0x1216 PUSH1 0x40 DUP6 ADD PUSH2 0x1141 JUMP JUMPDEST SWAP1 POP SWAP3 POP SWAP3 POP SWAP3 JUMP JUMPDEST PUSH1 0x0 DUP1 PUSH1 0x0 DUP1 PUSH1 0x80 DUP6 DUP8 SUB SLT ISZERO PUSH2 0x1235 JUMPI PUSH1 0x0 DUP1 REVERT JUMPDEST PUSH2 0x123E DUP6 PUSH2 0x1141 JUMP JUMPDEST SWAP4 POP PUSH1 0x20 DUP6 ADD CALLDATALOAD SWAP3 POP PUSH2 0x1253 PUSH1 0x40 DUP7 ADD PUSH2 0x1141 JUMP JUMPDEST SWAP4 SWAP7 SWAP3 SWAP6 POP SWAP3 SWAP4 PUSH1 0x60 ADD CALLDATALOAD SWAP3 POP POP JUMP JUMPDEST PUSH1 0x0 DUP1 PUSH1 0x0 PUSH1 0x60 DUP5 DUP7 SUB SLT ISZERO PUSH2 0x1278 JUMPI PUSH1 0x0 DUP1 REVERT JUMPDEST PUSH2 0x1281 DUP5 PUSH2 0x1141 JUMP JUMPDEST SWAP3 POP PUSH1 0x20 DUP5 ADD CALLDATALOAD SWAP2 POP PUSH1 0x40 DUP5 ADD CALLDATALOAD PUSH8 0xFFFFFFFFFFFFFFFF DUP2 GT ISZERO PUSH2 0x12A4 JUMPI PUSH1 0x0 DUP1 REVERT JUMPDEST PUSH2 0x12B0 DUP7 DUP3 DUP8 ADD PUSH2 0x115D JUMP JUMPDEST SWAP2 POP POP SWAP3 POP SWAP3 POP SWAP3 JUMP JUMPDEST PUSH1 0x0 DUP1 PUSH1 0x0 DUP1 PUSH1 0x80 DUP6 DUP8 SUB SLT ISZERO PUSH2 0x12D0 JUMPI PUSH1 0x0 DUP1 REVERT JUMPDEST PUSH2 0x12D9 DUP6 PUSH2 0x1141 JUMP JUMPDEST SWAP4 POP PUSH1 0x20 DUP6 ADD CALLDATALOAD SWAP3 POP PUSH1 0x40 DUP6 ADD CALLDATALOAD PUSH8 0xFFFFFFFFFFFFFFFF DUP2 GT ISZERO PUSH2 0x12FC JUMPI PUSH1 0x0 DUP1 REVERT JUMPDEST PUSH2 0x1308 DUP8 DUP3 DUP9 ADD PUSH2 0x115D JUMP JUMPDEST SWAP5 SWAP8 SWAP4 SWAP7 POP SWAP4 SWAP5 PUSH1 0x60 ADD CALLDATALOAD SWAP4 POP POP POP JUMP JUMPDEST PUSH1 0x0 DUP1 PUSH1 0x40 DUP4 DUP6 SUB SLT ISZERO PUSH2 0x132C JUMPI PUSH1 0x0 DUP1 REVERT JUMPDEST PUSH2 0x1335 DUP4 PUSH2 0x1141 JUMP JUMPDEST SWAP2 POP PUSH1 0x20 DUP4 ADD CALLDATALOAD PUSH8 0xFFFFFFFFFFFFFFFF DUP2 GT ISZERO PUSH2 0x1351 JUMPI PUSH1 0x0 DUP1 REVERT JUMPDEST DUP4 ADD PUSH1 0x1F DUP2 ADD DUP6 SGT PUSH2 0x1362 JUMPI PUSH1 0x0 DUP1 REVERT JUMPDEST PUSH2 0x1371 DUP6 DUP3 CALLDATALOAD PUSH1 0x20 DUP5 ADD PUSH2 0x10CB JUMP JUMPDEST SWAP2 POP POP SWAP3 POP SWAP3 SWAP1 POP JUMP JUMPDEST PUSH1 0x0 DUP1 PUSH1 0x0 DUP1 PUSH1 0x0 PUSH1 0xA0 DUP7 DUP9 SUB SLT ISZERO PUSH2 0x1393 JUMPI PUSH1 0x0 DUP1 REVERT JUMPDEST PUSH2 0x139C DUP7 PUSH2 0x1141 JUMP JUMPDEST SWAP5 POP PUSH2 0x13AA PUSH1 0x20 DUP8 ADD PUSH2 0x1184 JUMP JUMPDEST SWAP4 POP PUSH1 0x40 DUP7 ADD CALLDATALOAD SWAP3 POP PUSH1 0x60 DUP7 ADD CALLDATALOAD SWAP2 POP PUSH2 0x13C6 PUSH1 0x80 DUP8 ADD PUSH2 0x1141 JUMP JUMPDEST SWAP1 POP SWAP3 SWAP6 POP SWAP3 SWAP6 SWAP1 SWAP4 POP JUMP JUMPDEST PUSH1 0x0 DUP1 PUSH1 0x0 DUP1 PUSH1 0x0 DUP1 PUSH1 0xC0 DUP8 DUP10 SUB SLT ISZERO PUSH2 0x13EB JUMPI PUSH1 0x0 DUP1 REVERT JUMPDEST PUSH2 0x13F4 DUP8 PUSH2 0x1141 JUMP JUMPDEST SWAP6 POP PUSH2 0x1402 PUSH1 0x20 DUP9 ADD PUSH2 0x1184 JUMP JUMPDEST SWAP5 POP PUSH1 0x40 DUP8 ADD CALLDATALOAD SWAP4 POP PUSH1 0x60 DUP8 ADD CALLDATALOAD SWAP3 POP PUSH1 0x80 DUP8 ADD CALLDATALOAD SWAP2 POP PUSH2 0x1425 PUSH1 0xA0 DUP9 ADD PUSH2 0x1141 JUMP JUMPDEST SWAP1 POP SWAP3 SWAP6 POP SWAP3 SWAP6 POP SWAP3 SWAP6 JUMP JUMPDEST PUSH1 0x0 DUP1 PUSH1 0x0 DUP1 PUSH1 0x0 DUP1 PUSH1 0x0 PUSH1 0xE0 DUP9 DUP11 SUB SLT ISZERO PUSH2 0x144C JUMPI PUSH1 0x0 DUP1 REVERT JUMPDEST PUSH2 0x1455 DUP9 PUSH2 0x1141 JUMP JUMPDEST SWAP7 POP PUSH2 0x1463 PUSH1 0x20 DUP10 ADD PUSH2 0x1184 JUMP JUMPDEST SWAP6 POP PUSH1 0x40 DUP9 ADD CALLDATALOAD SWAP5 POP PUSH1 0x60 DUP9 ADD CALLDATALOAD SWAP4 POP PUSH1 0x80 DUP9 ADD CALLDATALOAD SWAP3 POP PUSH2 0x1486 PUSH1 0xA0 DUP10 ADD PUSH2 0x1141 JUMP JUMPDEST SWAP2 POP PUSH1 0xC0 DUP9 ADD CALLDATALOAD SWAP1 POP SWAP3 SWAP6 SWAP9 SWAP2 SWAP5 SWAP8 POP SWAP3 SWAP6 POP JUMP JUMPDEST PUSH1 0x0 DUP1 PUSH1 0x0 DUP1 PUSH1 0x0 DUP1 PUSH1 0xC0 DUP8 DUP10 SUB SLT ISZERO PUSH2 0x14B4 JUMPI PUSH1 0x0 DUP1 REVERT JUMPDEST PUSH2 0x14BD DUP8 PUSH2 0x1141 JUMP JUMPDEST SWAP6 POP PUSH2 0x14CB PUSH1 0x20 DUP9 ADD PUSH2 0x1184 JUMP JUMPDEST SWAP5 POP PUSH1 0x40 DUP8 ADD CALLDATALOAD SWAP4 POP PUSH1 0x60 DUP8 ADD CALLDATALOAD SWAP3 POP PUSH1 0x80 DUP8 ADD CALLDATALOAD SWAP2 POP PUSH1 0xA0 DUP8 ADD CALLDATALOAD PUSH8 0xFFFFFFFFFFFFFFFF DUP2 GT ISZERO PUSH2 0x14FC JUMPI PUSH1 0x0 DUP1 REVERT JUMPDEST PUSH2 0x1508 DUP10 DUP3 DUP11 ADD PUSH2 0x115D JUMP JUMPDEST SWAP2 POP POP SWAP3 SWAP6 POP SWAP3 SWAP6 POP SWAP3 SWAP6 JUMP JUMPDEST PUSH1 0x0 DUP1 PUSH1 0x0 DUP1 PUSH1 0x0 DUP1 PUSH1 0x0 PUSH1 0xE0 DUP9 DUP11 SUB SLT ISZERO PUSH2 0x1530 JUMPI PUSH1 0x0 DUP1 REVERT JUMPDEST PUSH2 0x1539 DUP9 PUSH2 0x1141 JUMP JUMPDEST SWAP7 POP PUSH2 0x1547 PUSH1 0x20 DUP10 ADD PUSH2 0x1184 JUMP JUMPDEST SWAP6 POP PUSH1 0x40 DUP9 ADD CALLDATALOAD SWAP5 POP PUSH1 0x60 DUP9 ADD CALLDATALOAD SWAP4 POP PUSH1 0x80 DUP9 ADD CALLDATALOAD SWAP3 POP PUSH1 0xA0 DUP9 ADD CALLDATALOAD PUSH8 0xFFFFFFFFFFFFFFFF DUP2 GT ISZERO PUSH2 0x1578 JUMPI PUSH1 0x0 DUP1 REVERT JUMPDEST PUSH2 0x1584 DUP11 DUP3 DUP12 ADD PUSH2 0x115D JUMP JUMPDEST SWAP3 POP POP PUSH1 0xC0 DUP9 ADD CALLDATALOAD SWAP1 POP SWAP3 SWAP6 SWAP9 SWAP2 SWAP5 SWAP8 POP SWAP3 SWAP6 POP JUMP JUMPDEST PUSH1 0x0 DUP2 MLOAD DUP1 DUP5 MSTORE PUSH2 0x15B2 DUP2 PUSH1 0x20 DUP7 ADD PUSH1 0x20 DUP7 ADD PUSH2 0x1750 JUMP JUMPDEST PUSH1 0x1F ADD PUSH1 0x1F NOT AND SWAP3 SWAP1 SWAP3 ADD PUSH1 0x20 ADD SWAP3 SWAP2 POP POP JUMP JUMPDEST PUSH1 0x0 PUSH1 0x1 PUSH1 0x1 PUSH1 0xF8 SHL SUB NOT DUP1 DUP11 AND DUP4 MSTORE DUP1 DUP10 AND PUSH1 0x1 DUP5 ADD MSTORE POP PUSH12 0xFFFFFFFFFFFFFFFFFFFFFFFF NOT DUP1 DUP9 PUSH1 0x60 SHL AND PUSH1 0x2 DUP5 ADD MSTORE DUP7 PUSH1 0x16 DUP5 ADD MSTORE DUP1 DUP7 PUSH1 0x60 SHL AND PUSH1 0x36 DUP5 ADD MSTORE POP PUSH32 0x7265766F6B654174747269627574650000000000000000000000000000000000 PUSH1 0x4A DUP4 ADD MSTORE DUP4 PUSH1 0x59 DUP4 ADD MSTORE DUP3 MLOAD PUSH2 0x1649 DUP2 PUSH1 0x79 DUP6 ADD PUSH1 0x20 DUP8 ADD PUSH2 0x1750 JUMP JUMPDEST SWAP2 SWAP1 SWAP2 ADD PUSH1 0x79 ADD SWAP9 SWAP8 POP POP POP POP POP POP POP POP JUMP JUMPDEST PUSH1 0x0 PUSH1 0x1 PUSH1 0x1 PUSH1 0xF8 SHL SUB NOT DUP1 DUP12 AND DUP4 MSTORE DUP1 DUP11 AND PUSH1 0x1 DUP5 ADD MSTORE POP PUSH12 0xFFFFFFFFFFFFFFFFFFFFFFFF NOT DUP1 DUP10 PUSH1 0x60 SHL AND PUSH1 0x2 DUP5 ADD MSTORE DUP8 PUSH1 0x16 DUP5 ADD MSTORE DUP1 DUP8 PUSH1 0x60 SHL AND PUSH1 0x36 DUP5 ADD MSTORE POP PUSH32 0x7365744174747269627574650000000000000000000000000000000000000000 PUSH1 0x4A DUP4 ADD MSTORE DUP5 PUSH1 0x56 DUP4 ADD MSTORE DUP4 MLOAD PUSH2 0x16DF DUP2 PUSH1 0x76 DUP6 ADD PUSH1 0x20 DUP9 ADD PUSH2 0x1750 JUMP JUMPDEST PUSH1 0x76 SWAP3 ADD SWAP2 DUP3 ADD SWAP3 SWAP1 SWAP3 MSTORE PUSH1 0x96 ADD SWAP9 SWAP8 POP POP POP POP POP POP POP POP JUMP JUMPDEST DUP5 DUP2 MSTORE PUSH1 0x80 PUSH1 0x20 DUP3 ADD MSTORE PUSH1 0x0 PUSH2 0x1712 PUSH1 0x80 DUP4 ADD DUP7 PUSH2 0x159A JUMP JUMPDEST PUSH1 0x40 DUP4 ADD SWAP5 SWAP1 SWAP5 MSTORE POP PUSH1 0x60 ADD MSTORE SWAP3 SWAP2 POP POP JUMP JUMPDEST PUSH1 0x20 DUP2 MSTORE PUSH1 0x0 PUSH2 0x117D PUSH1 0x20 DUP4 ADD DUP5 PUSH2 0x159A JUMP JUMPDEST PUSH1 0x0 DUP3 NOT DUP3 GT ISZERO PUSH2 0x174B JUMPI PUSH2 0x174B PUSH2 0x17D2 JUMP JUMPDEST POP ADD SWAP1 JUMP JUMPDEST PUSH1 0x0 JUMPDEST DUP4 DUP2 LT ISZERO PUSH2 0x176B JUMPI DUP2 DUP2 ADD MLOAD DUP4 DUP3 ADD MSTORE PUSH1 0x20 ADD PUSH2 0x1753 JUMP JUMPDEST DUP4 DUP2 GT ISZERO PUSH2 0x6D8 JUMPI POP POP PUSH1 0x0 SWAP2 ADD MSTORE JUMP JUMPDEST PUSH1 0x1 DUP2 DUP2 SHR SWAP1 DUP3 AND DUP1 PUSH2 0x1790 JUMPI PUSH1 0x7F DUP3 AND SWAP2 POP JUMPDEST PUSH1 0x20 DUP3 LT DUP2 EQ ISZERO PUSH2 0x17B1 JUMPI PUSH4 0x4E487B71 PUSH1 0xE0 SHL PUSH1 0x0 MSTORE PUSH1 0x22 PUSH1 0x4 MSTORE PUSH1 0x24 PUSH1 0x0 REVERT JUMPDEST POP SWAP2 SWAP1 POP JUMP JUMPDEST PUSH1 0x0 PUSH1 0x0 NOT DUP3 EQ ISZERO PUSH2 0x17CB JUMPI PUSH2 0x17CB PUSH2 0x17D2 JUMP JUMPDEST POP PUSH1 0x1 ADD SWAP1 JUMP JUMPDEST PUSH4 0x4E487B71 PUSH1 0xE0 SHL PUSH1 0x0 MSTORE PUSH1 0x11 PUSH1 0x4 MSTORE PUSH1 0x24 PUSH1 0x0 REVERT JUMPDEST PUSH4 0x4E487B71 PUSH1 0xE0 SHL PUSH1 0x0 MSTORE PUSH1 0x41 PUSH1 0x4 MSTORE PUSH1 0x24 PUSH1 0x0 REVERT INVALID LOG2 PUSH5 0x6970667358 0x22 SLT KECCAK256 0xDC SAR SWAP13 SELFBALANCE 0x23 DUP1 BYTE 0x48 BALANCE SLOAD 0xFC SAR DUP10 LT 0xAD 0x4D 0xE1 0xBB ORIGIN 0xE2 DUP4 0xE2 SWAP8 DIV GASLIMIT PUSH14 0xBFF30253F61C64736F6C63430008 MOD STOP CALLER "},"methodIdentifiers":{"addDelegate(address,bytes32,address,uint256)":"a7068d66","addDelegateSigned(address,uint8,bytes32,bytes32,bytes32,address,uint256)":"9c2c1b2b","changeOwner(address,address)":"f00d4b5d","changeOwnerSigned(address,uint8,bytes32,bytes32,address)":"240cf1fa","changed(address)":"f96d0f9f","delegates(address,bytes32,address)":"0d44625b","getDIDDocumentCID(address)":"35118de2","getProfileCID(address)":"de8b05be","identityOwner(address)":"8733d4e8","nonce(address)":"70ae92d2","owners(address)":"022914a7","revokeAttribute(address,bytes32,bytes)":"00c023da","revokeAttributeSigned(address,uint8,bytes32,bytes32,bytes32,bytes)":"e476af5c","revokeDelegate(address,bytes32,address)":"80b29f7c","revokeDelegateSigned(address,uint8,bytes32,bytes32,bytes32,address)":"93072684","setAttribute(address,bytes32,bytes,uint256)":"7ad4b0a4","setAttributeSigned(address,uint8,bytes32,bytes32,bytes32,bytes,uint256)":"123b5e98","setDIDDocumentCID(address,string)":"e3095e45","setProfileCID(address,string)":"46a59e5f","validDelegate(address,bytes32,address)":"622b2a3c"}}}}}